:10038000758921758780758DF3758BF3758CEC7588
:100390008A78D28CD2A9D28EC29FD29ED29CD2AC65
:0303A000D2AF22B7
:10040400C180C18141000000410004004100050099
:0904140041000300420001000058
:1004C200900004740FF0900003F0D291C290D29485
:0704D200D292C293D29522E1
:1004D900900004740AF0900003F0D291C290D29473
:0704E900D292C293D29522CA
:10045E009000047405F0900003740FF0C291D290D6
:09046E00C294D292C293D29522ED
:100477009000047403F09000037408F0C291D290C6
:09048700C294D292C293D29522D4
:10049000900004740FF09000037405F0D291C290A4
:0904A000D294C292D293C29522BB
:1004A9009000047408F09000037403F0D291C29094
:0904B900D294C292D293C29522A2
:0E055900E4900004F0900003F0C294C29522DA
:1004F000900004740AF0900003F0C291D290C2946C
:07050000C292D293C29522C2
:10033400300120900004E0FF900000E0FED39F50C5
:1003440004D2958002C295EEC394144008E4900050
:0603540000F022C2952218
:10035A00300020900003E0FF900005E0FED39F509C
:10036A0004D2948002C294EEC394144008E490002C
:06037A0005F022C29422EE
:03000B0002028F5F
:10028F00C0E0C083C082C0D075D000C006C0077563
:10029F008CEC758A78900002E004F07006900001F3
:1002AF00E004F0900000E004F0900005E004F0128C
:1002BF00033412035AD007D006D0D0D082D083D0C7
:0202CF00E0321B
:1002D1003531B5A5C6ACBBFABFCEC9E800C0B6D1B1
:1002E100C0D1B0BCA3D2A3BFD8D0A1B3B500D7F7BA
:1002F100D5DF2D2DC1F5D2A22000C1D6BAE8D1F3A8
:090301002020BDAFBAC6E6C3001E
:0C030A00E993FF7E001203A37F017E0038
:10031600D3EF9400EE940040147D647C00ED1D70D4
:0D032600011CED4C70F7EF1F70E61E80E328
:0103330022A7
:10042200EF1FAA0670011E4A6013E4FCFDC3ED949F
:0D04320078EC940050EA0DBD00010C80F044
:01043F00229A
:1003E500AB07C2A6C2A5120312AF038F80D2A77FA7
:0F03F5000A7E00120316C2A77F027E00020316C3
:1003A300AB07AA06C2A6D2A5120312AF038F80D24F
:1003B300A77F0A7E00120316C2A77F027E000203F4
:0103C3001623
:10024C007FD07E071203167F301203E57F047E00F9
:10025C001203167F301203E57F047E001203167F13
:10026C000F1203E57F047E001203167F011203E5D3
:10027C007FF07E001203167F061203E57F0A7E00D4
:03028C0002031654
:100507007F811203E5120312E4F99002D112030A64
:0505170009E9B40CF538
:01051C0022BC
:10051D007F901203E5120312E4F99002DE12030A32
:05052D0009E9B410F51E
:0105320022A6
:10000E007F891203E5E4F9E99002EF12030B09E987
:03001E00B40AF42D
:0100210022BC
:100533007F991203E5E4F9E99002FB12030B09E941
:03054300B40EF4FF
:010546002292
:10054700C2A37F507E00120422D2A37F507E0002F6
:0205570004227C
:04041D004100090091
:1001E00030A20B20A1089000097401F0802120A208
:1001F0000B30A1089000097402F0801330A2053082
:10020000A102800620A20820A105E4900009F09038
:100210000009E0702230A20630A1030204C230A21D
:100220000520A102801820A20530A102801A20A278
:100230001A20A117020559900009E0B40103020435
:0C0240005E900009E0B40203120490225A
:10044000474F004261636B004C65667400526967F8
:0E04500068740053746F700058756E6A69000E
:1000260012024C12038012050712051D12000E1251
:100036000533900006E0B401F9A3E0700302011055
:1000460024FE603E1460691470030200E31470031A
:10005600020145240470DB1205471204C2C2ACE457
:10006600900008F0900008E0FFC39402503FEF9024
:10007600044093F5993099FDC299900008E004F088
:1000860080E21205471204F0C2ACE4900008F0903A
:100096000008E0FFC394045014EF90044393F599CD
:1000A6003099FDC299900008E004F080E202013B1D
:1000B60012054712045EC2ACE4900008F0900008F6
:1000C600E0FFC394045014EF90044893F5993099D7
:1000D600FDC299900008E004F080E28058120547BE
:1000E600120490C2ACE4900008F0900008E0FFC350
:1000F60094055014EF90044D93F5993099FDC299EB
:10010600900008E004F080E2802B120547120559A2
:10011600C2ACE4900008F0900008E0FFC3940450DD
:1001260014EF90045393F5993099FDC29990000805
:10013600E004F080E2D2ACE4900006F0020038124F
:0E01460005471201E0900007E070F702003854
:030023000203C411
:1003C400C0E0C083C082C0D0E59924D0900007F07B
:1003D400C2989000067401F0D0D0D082D083D0E0CF
:0103E40032E6
:03000000020154A6
:0C015400787FE4F6D8FD75812002019B45
:10016000020026E493A3F8E493A34003F68001F28F
:1001700008DFF48029E493A3F85407240CC8C333A0
:10018000C4540F4420C8834004F456800146F6DF6F
:10019000E4800B0102040810204080900404E47EF7
:1001A000019360BCA3FF543F30E509541FFEE49364
:1001B000A360010ECF54C025E060A840B8E493A32B
:1001C000FAE493A3F8E493A3C8C582C8CAC583CA56
:1001D000F0A3C8C582C8CAC583CADFE9DEE780BE0E
:0104210000DA
:00000001FF
